{
  "contractName": "Dex",
  "abi": [
    {
      "anonymous": false,
      "inputs": [
        {
          "indexed": true,
          "internalType": "address",
          "name": "previousOwner",
          "type": "address"
        },
        {
          "indexed": true,
          "internalType": "address",
          "name": "newOwner",
          "type": "address"
        }
      ],
      "name": "OwnershipTransferred",
      "type": "event"
    },
    {
      "inputs": [
        {
          "internalType": "bytes32",
          "name": "ticker",
          "type": "bytes32"
        },
        {
          "internalType": "address",
          "name": "tokenAddress",
          "type": "address"
        }
      ],
      "name": "addToken",
      "outputs": [],
      "stateMutability": "nonpayable",
      "type": "function"
    },
    {
      "inputs": [
        {
          "internalType": "address",
          "name": "",
          "type": "address"
        },
        {
          "internalType": "bytes32",
          "name": "",
          "type": "bytes32"
        }
      ],
      "name": "balances",
      "outputs": [
        {
          "internalType": "uint256",
          "name": "",
          "type": "uint256"
        }
      ],
      "stateMutability": "view",
      "type": "function",
      "constant": true
    },
    {
      "inputs": [
        {
          "internalType": "uint256",
          "name": "amount",
          "type": "uint256"
        },
        {
          "internalType": "bytes32",
          "name": "ticker",
          "type": "bytes32"
        }
      ],
      "name": "deposit",
      "outputs": [],
      "stateMutability": "nonpayable",
      "type": "function"
    },
    {
      "inputs": [],
      "name": "depositEth",
      "outputs": [],
      "stateMutability": "payable",
      "type": "function",
      "payable": true
    },
    {
      "inputs": [
        {
          "internalType": "bytes32",
          "name": "",
          "type": "bytes32"
        },
        {
          "internalType": "uint256",
          "name": "",
          "type": "uint256"
        },
        {
          "internalType": "uint256",
          "name": "",
          "type": "uint256"
        }
      ],
      "name": "orderBook",
      "outputs": [
        {
          "internalType": "uint256",
          "name": "id",
          "type": "uint256"
        },
        {
          "internalType": "address",
          "name": "trader",
          "type": "address"
        },
        {
          "internalType": "enum Dex.Side",
          "name": "side",
          "type": "uint8"
        },
        {
          "internalType": "bytes32",
          "name": "ticker",
          "type": "bytes32"
        },
        {
          "internalType": "uint256",
          "name": "amount",
          "type": "uint256"
        },
        {
          "internalType": "uint256",
          "name": "price",
          "type": "uint256"
        },
        {
          "internalType": "uint256",
          "name": "filled",
          "type": "uint256"
        }
      ],
      "stateMutability": "view",
      "type": "function",
      "constant": true
    },
    {
      "inputs": [],
      "name": "owner",
      "outputs": [
        {
          "internalType": "address",
          "name": "",
          "type": "address"
        }
      ],
      "stateMutability": "view",
      "type": "function",
      "constant": true
    },
    {
      "inputs": [],
      "name": "renounceOwnership",
      "outputs": [],
      "stateMutability": "nonpayable",
      "type": "function"
    },
    {
      "inputs": [
        {
          "internalType": "uint256",
          "name": "",
          "type": "uint256"
        }
      ],
      "name": "tokenList",
      "outputs": [
        {
          "internalType": "bytes32",
          "name": "",
          "type": "bytes32"
        }
      ],
      "stateMutability": "view",
      "type": "function",
      "constant": true
    },
    {
      "inputs": [
        {
          "internalType": "bytes32",
          "name": "",
          "type": "bytes32"
        }
      ],
      "name": "tokenMapping",
      "outputs": [
        {
          "internalType": "bytes32",
          "name": "ticker",
          "type": "bytes32"
        },
        {
          "internalType": "address",
          "name": "tokenAddress",
          "type": "address"
        }
      ],
      "stateMutability": "view",
      "type": "function",
      "constant": true
    },
    {
      "inputs": [
        {
          "internalType": "address",
          "name": "newOwner",
          "type": "address"
        }
      ],
      "name": "transferOwnership",
      "outputs": [],
      "stateMutability": "nonpayable",
      "type": "function"
    },
    {
      "inputs": [
        {
          "internalType": "uint256",
          "name": "amount",
          "type": "uint256"
        },
        {
          "internalType": "bytes32",
          "name": "ticker",
          "type": "bytes32"
        }
      ],
      "name": "withdraw",
      "outputs": [],
      "stateMutability": "nonpayable",
      "type": "function"
    },
    {
      "inputs": [
        {
          "internalType": "uint256",
          "name": "amount",
          "type": "uint256"
        }
      ],
      "name": "withdrawEth",
      "outputs": [],
      "stateMutability": "nonpayable",
      "type": "function"
    },
    {
      "inputs": [
        {
          "internalType": "bytes32",
          "name": "ticker",
          "type": "bytes32"
        },
        {
          "internalType": "enum Dex.Side",
          "name": "side",
          "type": "uint8"
        }
      ],
      "name": "getOrderBook",
      "outputs": [
        {
          "components": [
            {
              "internalType": "uint256",
              "name": "id",
              "type": "uint256"
            },
            {
              "internalType": "address",
              "name": "trader",
              "type": "address"
            },
            {
              "internalType": "enum Dex.Side",
              "name": "side",
              "type": "uint8"
            },
            {
              "internalType": "bytes32",
              "name": "ticker",
              "type": "bytes32"
            },
            {
              "internalType": "uint256",
              "name": "amount",
              "type": "uint256"
            },
            {
              "internalType": "uint256",
              "name": "price",
              "type": "uint256"
            },
            {
              "internalType": "uint256",
              "name": "filled",
              "type": "uint256"
            }
          ],
          "internalType": "struct Dex.Order[]",
          "name": "",
          "type": "tuple[]"
        }
      ],
      "stateMutability": "view",
      "type": "function",
      "constant": true
    },
    {
      "inputs": [
        {
          "internalType": "enum Dex.Side",
          "name": "side",
          "type": "uint8"
        },
        {
          "internalType": "bytes32",
          "name": "ticker",
          "type": "bytes32"
        },
        {
          "internalType": "uint256",
          "name": "amount",
          "type": "uint256"
        },
        {
          "internalType": "uint256",
          "name": "price",
          "type": "uint256"
        }
      ],
      "name": "createLimitOrder",
      "outputs": [],
      "stateMutability": "nonpayable",
      "type": "function"
    },
    {
      "inputs": [
        {
          "internalType": "enum Dex.Side",
          "name": "side",
          "type": "uint8"
        },
        {
          "internalType": "bytes32",
          "name": "ticker",
          "type": "bytes32"
        },
        {
          "internalType": "uint256",
          "name": "amount",
          "type": "uint256"
        }
      ],
      "name": "createMarketOrder",
      "outputs": [],
      "stateMutability": "nonpayable",
      "type": "function"
    }
  ],
  "bytecode": "0x60806040523480156200001157600080fd5b5062000032620000266200003860201b60201c565b6200004060201b60201c565b62000104565b600033905090565b60008060009054906101000a900473ffffffffffffffffffffffffffffffffffffffff169050816000806101000a81548173ffffffffffffffffffffffffffffffffffffffff021916908373ffffffffffffffffffffffffffffffffffffffff1602179055508173ffffffffffffffffffffffffffffffffffffffff168173ffffffffffffffffffffffffffffffffffffffff167f8be0079c531659141344cd1fd0a4f28419497f9722a3daafe3b4186f6b6457e060405160405180910390a35050565b61375f80620001146000396000f3fe6080604052600436106100e85760003560e01c80639776aacf1161008a578063ba58ea6811610059578063ba58ea68146102d8578063c311d04914610315578063c9630cb01461033e578063f2fde38b14610367576100e8565b80639776aacf1461022057806399ec2f1c146102495780639ead722214610272578063a8d2021a146102af576100e8565b8063667cb4ba116100c6578063667cb4ba146101775780636f3b62f9146101b5578063715018a6146101de5780638da5cb5b146101f5576100e8565b80630bb431b6146100ed5780631f14df6914610130578063439370b11461016d575b600080fd5b3480156100f957600080fd5b50610114600480360381019061010f9190612ba8565b610390565b6040516101279796959493929190612cd1565b60405180910390f35b34801561013c57600080fd5b5061015760048036038101906101529190612d6c565b610429565b6040516101649190612dac565b60405180910390f35b61017561044e565b005b34801561018357600080fd5b5061019e60048036038101906101999190612dc7565b610547565b6040516101ac929190612df4565b60405180910390f35b3480156101c157600080fd5b506101dc60048036038101906101d79190612e42565b61058b565b005b3480156101ea57600080fd5b506101f3610fd2565b005b34801561020157600080fd5b5061020a61105a565b6040516102179190612ea9565b60405180910390f35b34801561022c57600080fd5b5061024760048036038101906102429190612ec4565b611083565b005b34801561025557600080fd5b50610270600480360381019061026b9190612f04565b6111be565b005b34801561027e57600080fd5b5061029960048036038101906102949190612f57565b6120d9565b6040516102a69190612f84565b60405180910390f35b3480156102bb57600080fd5b506102d660048036038101906102d19190612f9f565b6120fd565b005b3480156102e457600080fd5b506102ff60048036038101906102fa9190612fdf565b6123a8565b60405161030c9190613198565b60405180910390f35b34801561032157600080fd5b5061033c60048036038101906103379190612f57565b612501565b005b34801561034a57600080fd5b5061036560048036038101906103609190612f9f565b612717565b005b34801561037357600080fd5b5061038e600480360381019061038991906131ba565b612931565b005b600560205282600052604060002060205281600052604060002081815481106103b857600080fd5b906000526020600020906006020160009250925050508060000154908060010160009054906101000a900473ffffffffffffffffffffffffffffffffffffffff16908060010160149054906101000a900460ff16908060020154908060030154908060040154908060050154905087565b6003602052816000526040600020602052806000526040600020600091509150505481565b6104d134600360003373ffffffffffffffffffffffffffffffffffffffff1673ffffffffffffffffffffffffffffffffffffffff16815260200190815260200160002060007f4554480000000000000000000000000000000000000000000000000000000000815260200190815260200160002054612a2990919063ffffffff16565b600360003373ffffffffffffffffffffffffffffffffffffffff1673ffffffffffffffffffffffffffffffffffffffff16815260200190815260200160002060007f4554480000000000000000000000000000000000000000000000000000000000815260200190815260200160002081905550565b60016020528060005260406000206000915090508060000154908060010160009054906101000a900473ffffffffffffffffffffffffffffffffffffffff16905082565b6000600181111561059f5761059e612c4b565b5b8460018111156105b2576105b1612c4b565b5b141561064c576105cb8183612a3f90919063ffffffff16565b600360003373ffffffffffffffffffffffffffffffffffffffff1673ffffffffffffffffffffffffffffffffffffffff16815260200190815260200160002060007f4554480000000000000000000000000000000000000000000000000000000000815260200190815260200160002054101561064757600080fd5b6106d7565b60018081111561065f5761065e612c4b565b5b84600181111561067257610671612c4b565b5b14156106d65781600360003373ffffffffffffffffffffffffffffffffffffffff1673ffffffffffffffffffffffffffffffffffffffff16815260200190815260200160002060008581526020019081526020016000205410156106d557600080fd5b5b5b600060056000858152602001908152602001600020600086600181111561070157610700612c4b565b5b81526020019081526020016000209050806040518060e0016040528060045481526020013373ffffffffffffffffffffffffffffffffffffffff16815260200187600181111561075457610753612c4b565b5b8152602001868152602001858152602001848152602001600081525090806001815401808255809150506001900390600052602060002090600602016000909190919091506000820151816000015560208201518160010160006101000a81548173ffffffffffffffffffffffffffffffffffffffff021916908373ffffffffffffffffffffffffffffffffffffffff16021790555060408201518160010160146101000a81548160ff0219169083600181111561081557610814612c4b565b5b0217905550606082015181600201556080820151816003015560a0820151816004015560c08201518160050155505060008082805490501161085857600061086a565b600182805490506108699190613216565b5b9050600060018111156108805761087f612c4b565b5b86600181111561089357610892612c4b565b5b1415610c11575b6000811115610c0c578181815481106108b6576108b561324a565b5b906000526020600020906006020160040154826001836108d69190613216565b815481106108e7576108e661324a565b5b906000526020600020906006020160040154111561090457610c0c565b6000826001836109149190613216565b815481106109255761092461324a565b5b90600052602060002090600602016040518060e0016040529081600082015481526020016001820160009054906101000a900473ffffffffffffffffffffffffffffffffffffffff1673ffffffffffffffffffffffffffffffffffffffff1673ffffffffffffffffffffffffffffffffffffffff1681526020016001820160149054906101000a900460ff1660018111156109c3576109c2612c4b565b5b60018111156109d5576109d4612c4b565b5b81526020016002820154815260200160038201548152602001600482015481526020016005820154815250509050828281548110610a1657610a1561324a565b5b906000526020600020906006020183600184610a329190613216565b81548110610a4357610a4261324a565b5b9060005260206000209060060201600082015481600001556001820160009054906101000a900473ffffffffffffffffffffffffffffffffffffffff168160010160006101000a81548173ffffffffffffffffffffffffffffffffffffffff021916908373ffffffffffffffffffffffffffffffffffffffff1602179055506001820160149054906101000a900460ff168160010160146101000a81548160ff02191690836001811115610afa57610af9612c4b565b5b02179055506002820154816002015560038201548160030155600482015481600401556005820154816005015590505080838381548110610b3e57610b3d61324a565b5b90600052602060002090600602016000820151816000015560208201518160010160006101000a81548173ffffffffffffffffffffffffffffffffffffffff021916908373ffffffffffffffffffffffffffffffffffffffff16021790555060408201518160010160146101000a81548160ff02191690836001811115610bc857610bc7612c4b565b5b0217905550606082015181600201556080820151816003015560a0820151816004015560c082015181600501559050508180610c0390613279565b9250505061089a565b610fb2565b600180811115610c2457610c23612c4b565b5b866001811115610c3757610c36612c4b565b5b1415610fb1575b6000811115610fb057818181548110610c5a57610c5961324a565b5b90600052602060002090600602016004015482600183610c7a9190613216565b81548110610c8b57610c8a61324a565b5b9060005260206000209060060201600401541015610ca857610fb0565b600082600183610cb89190613216565b81548110610cc957610cc861324a565b5b90600052602060002090600602016040518060e0016040529081600082015481526020016001820160009054906101000a900473ffffffffffffffffffffffffffffffffffffffff1673ffffffffffffffffffffffffffffffffffffffff1673ffffffffffffffffffffffffffffffffffffffff1681526020016001820160149054906101000a900460ff166001811115610d6757610d66612c4b565b5b6001811115610d7957610d78612c4b565b5b81526020016002820154815260200160038201548152602001600482015481526020016005820154815250509050828281548110610dba57610db961324a565b5b906000526020600020906006020183600184610dd69190613216565b81548110610de757610de661324a565b5b9060005260206000209060060201600082015481600001556001820160009054906101000a900473ffffffffffffffffffffffffffffffffffffffff168160010160006101000a81548173ffffffffffffffffffffffffffffffffffffffff021916908373ffffffffffffffffffffffffffffffffffffffff1602179055506001820160149054906101000a900460ff168160010160146101000a81548160ff02191690836001811115610e9e57610e9d612c4b565b5b02179055506002820154816002015560038201548160030155600482015481600401556005820154816005015590505080838381548110610ee257610ee161324a565b5b90600052602060002090600602016000820151816000015560208201518160010160006101000a81548173ffffffffffffffffffffffffffffffffffffffff021916908373ffffffffffffffffffffffffffffffffffffffff16021790555060408201518160010160146101000a81548160ff02191690836001811115610f6c57610f6b612c4b565b5b0217905550606082015181600201556080820151816003015560a0820151816004015560c082015181600501559050508180610fa790613279565b92505050610c3e565b5b5b60046000815480929190610fc5906132a3565b9190505550505050505050565b610fda612a55565b73ffffffffffffffffffffffffffffffffffffffff16610ff861105a565b73ffffffffffffffffffffffffffffffffffffffff161461104e576040517f08c379a000000000000000000000000000000000000000000000000000000000815260040161104590613349565b60405180910390fd5b6110586000612a5d565b565b60008060009054906101000a900473ffffffffffffffffffffffffffffffffffffffff16905090565b61108b612a55565b73ffffffffffffffffffffffffffffffffffffffff166110a961105a565b73ffffffffffffffffffffffffffffffffffffffff16146110ff576040517f08c379a00000000000000000000000000000000000000000000000000000000081526004016110f690613349565b60405180910390fd5b60405180604001604052808381526020018273ffffffffffffffffffffffffffffffffffffffff16815250600160008481526020019081526020016000206000820151816000015560208201518160010160006101000a81548173ffffffffffffffffffffffffffffffffffffffff021916908373ffffffffffffffffffffffffffffffffffffffff16021790555090505060028290806001815401808255809150506001900390600052602060002001600090919091909150555050565b6001808111156111d1576111d0612c4b565b5b8360018111156111e4576111e3612c4b565b5b141561127e5780600360003373ffffffffffffffffffffffffffffffffffffffff1673ffffffffffffffffffffffffffffffffffffffff168152602001908152602001600020600084815260200190815260200160002054101561127d576040517f08c379a0000000000000000000000000000000000000000000000000000000008152600401611274906133b5565b60405180910390fd5b5b600080600181111561129357611292612c4b565b5b8460018111156112a6576112a5612c4b565b5b14156112b557600190506112ba565b600090505b60006005600085815260200190815260200160002060008381526020019081526020016000209050600080600090505b8280549050811080156112fc57508482105b15611e855760006113168387612b2190919063ffffffff16565b905060006113758584815481106113305761132f61324a565b5b9060005260206000209060060201600501548685815481106113555761135461324a565b5b906000526020600020906006020160030154612b2190919063ffffffff16565b90506000828211156113895782905061138d565b8190505b6113a08186612a2990919063ffffffff16565b94506113d9818786815481106113b9576113b861324a565b5b906000526020600020906006020160050154612a2990919063ffffffff16565b8685815481106113ec576113eb61324a565b5b906000526020600020906006020160050181905550600061143a8786815481106114195761141861324a565b5b90600052602060002090600602016004015483612a3f90919063ffffffff16565b9050600060018111156114505761144f612c4b565b5b8b600181111561146357611462612c4b565b5b14156119575780600360003373ffffffffffffffffffffffffffffffffffffffff1673ffffffffffffffffffffffffffffffffffffffff16815260200190815260200160002060007f455448000000000000000000000000000000000000000000000000000000000081526020019081526020016000205410156114e657600080fd5b61154982600360003373ffffffffffffffffffffffffffffffffffffffff1673ffffffffffffffffffffffffffffffffffffffff16815260200190815260200160002060008d815260200190815260200160002054612a2990919063ffffffff16565b600360003373ffffffffffffffffffffffffffffffffffffffff1673ffffffffffffffffffffffffffffffffffffffff16815260200190815260200160002060008c81526020019081526020016000208190555061162081600360003373ffffffffffffffffffffffffffffffffffffffff1673ffffffffffffffffffffffffffffffffffffffff16815260200190815260200160002060007f4554480000000000000000000000000000000000000000000000000000000000815260200190815260200160002054612b2190919063ffffffff16565b600360003373ffffffffffffffffffffffffffffffffffffffff1673ffffffffffffffffffffffffffffffffffffffff16815260200190815260200160002060007f455448000000000000000000000000000000000000000000000000000000000081526020019081526020016000208190555061173b82600360008a89815481106116af576116ae61324a565b5b906000526020600020906006020160010160009054906101000a900473ffffffffffffffffffffffffffffffffffffffff1673ffffffffffffffffffffffffffffffffffffffff1673ffffffffffffffffffffffffffffffffffffffff16815260200190815260200160002060008d815260200190815260200160002054612b2190919063ffffffff16565b600360008988815481106117525761175161324a565b5b906000526020600020906006020160010160009054906101000a900473ffffffffffffffffffffffffffffffffffffffff1673ffffffffffffffffffffffffffffffffffffffff1673ffffffffffffffffffffffffffffffffffffffff16815260200190815260200160002060008c81526020019081526020016000208190555061189a81600360008a89815481106117ee576117ed61324a565b5b906000526020600020906006020160010160009054906101000a900473ffffffffffffffffffffffffffffffffffffffff1673ffffffffffffffffffffffffffffffffffffffff1673ffffffffffffffffffffffffffffffffffffffff16815260200190815260200160002060007f4554480000000000000000000000000000000000000000000000000000000000815260200190815260200160002054612a2990919063ffffffff16565b600360008988815481106118b1576118b061324a565b5b906000526020600020906006020160010160009054906101000a900473ffffffffffffffffffffffffffffffffffffffff1673ffffffffffffffffffffffffffffffffffffffff1673ffffffffffffffffffffffffffffffffffffffff16815260200190815260200160002060007f4554480000000000000000000000000000000000000000000000000000000000815260200190815260200160002081905550611e6e565b60018081111561196a57611969612c4b565b5b8b600181111561197d5761197c612c4b565b5b1415611e6d5780600360003373ffffffffffffffffffffffffffffffffffffffff1673ffffffffffffffffffffffffffffffffffffffff16815260200190815260200160002060007f45544800000000000000000000000000000000000000000000000000000000008152602001908152602001600020541015611a0057600080fd5b611a6382600360003373ffffffffffffffffffffffffffffffffffffffff1673ffffffffffffffffffffffffffffffffffffffff16815260200190815260200160002060008d815260200190815260200160002054612b2190919063ffffffff16565b600360003373ffffffffffffffffffffffffffffffffffffffff1673ffffffffffffffffffffffffffffffffffffffff16815260200190815260200160002060008c815260200190815260200160002081905550611b3a81600360003373ffffffffffffffffffffffffffffffffffffffff1673ffffffffffffffffffffffffffffffffffffffff16815260200190815260200160002060007f4554480000000000000000000000000000000000000000000000000000000000815260200190815260200160002054612a2990919063ffffffff16565b600360003373ffffffffffffffffffffffffffffffffffffffff1673ffffffffffffffffffffffffffffffffffffffff16815260200190815260200160002060007f4554480000000000000000000000000000000000000000000000000000000000815260200190815260200160002081905550611c5582600360008a8981548110611bc957611bc861324a565b5b906000526020600020906006020160010160009054906101000a900473ffffffffffffffffffffffffffffffffffffffff1673ffffffffffffffffffffffffffffffffffffffff1673ffffffffffffffffffffffffffffffffffffffff16815260200190815260200160002060008d815260200190815260200160002054612a2990919063ffffffff16565b60036000898881548110611c6c57611c6b61324a565b5b906000526020600020906006020160010160009054906101000a900473ffffffffffffffffffffffffffffffffffffffff1673ffffffffffffffffffffffffffffffffffffffff1673ffffffffffffffffffffffffffffffffffffffff16815260200190815260200160002060008c815260200190815260200160002081905550611db481600360008a8981548110611d0857611d0761324a565b5b906000526020600020906006020160010160009054906101000a900473ffffffffffffffffffffffffffffffffffffffff1673ffffffffffffffffffffffffffffffffffffffff1673ffffffffffffffffffffffffffffffffffffffff16815260200190815260200160002060007f4554480000000000000000000000000000000000000000000000000000000000815260200190815260200160002054612b2190919063ffffffff16565b60036000898881548110611dcb57611dca61324a565b5b906000526020600020906006020160010160009054906101000a900473ffffffffffffffffffffffffffffffffffffffff1673ffffffffffffffffffffffffffffffffffffffff1673ffffffffffffffffffffffffffffffffffffffff16815260200190815260200160002060007f45544800000000000000000000000000000000000000000000000000000000008152602001908152602001600020819055505b5b505050508080611e7d906132a3565b9150506112ea565b505b60008280549050118015611ee4575081600081548110611eaa57611ea961324a565b5b90600052602060002090600602016003015482600081548110611ed057611ecf61324a565b5b906000526020600020906006020160050154145b156120d15760005b60018380549050611efd9190613216565b81101561203e5782600182611f1291906133d5565b81548110611f2357611f2261324a565b5b9060005260206000209060060201838281548110611f4457611f4361324a565b5b9060005260206000209060060201600082015481600001556001820160009054906101000a900473ffffffffffffffffffffffffffffffffffffffff168160010160006101000a81548173ffffffffffffffffffffffffffffffffffffffff021916908373ffffffffffffffffffffffffffffffffffffffff1602179055506001820160149054906101000a900460ff168160010160146101000a81548160ff02191690836001811115611ffb57611ffa612c4b565b5b0217905550600282015481600201556003820154816003015560048201548160040155600582015481600501559050508080612036906132a3565b915050611eec565b50818054806120505761204f61342b565b5b60019003818190600052602060002090600602016000808201600090556001820160006101000a81549073ffffffffffffffffffffffffffffffffffffffff02191690556001820160146101000a81549060ff0219169055600282016000905560038201600090556004820160009055600582016000905550509055611e87565b505050505050565b600281815481106120e957600080fd5b906000526020600020016000915090505481565b80600073ffffffffffffffffffffffffffffffffffffffff166001600083815260200190815260200160002060010160009054906101000a900473ffffffffffffffffffffffffffffffffffffffff1673ffffffffffffffffffffffffffffffffffffffff1614156121a4576040517f08c379a000000000000000000000000000000000000000000000000000000000815260040161219b906134a6565b60405180910390fd5b82600360003373ffffffffffffffffffffffffffffffffffffffff1673ffffffffffffffffffffffffffffffffffffffff1681526020019081526020016000206000848152602001908152602001600020541015612237576040517f08c379a000000000000000000000000000000000000000000000000000000000815260040161222e90613512565b60405180910390fd5b61229a83600360003373ffffffffffffffffffffffffffffffffffffffff1673ffffffffffffffffffffffffffffffffffffffff168152602001908152602001600020600085815260200190815260200160002054612b2190919063ffffffff16565b600360003373ffffffffffffffffffffffffffffffffffffffff1673ffffffffffffffffffffffffffffffffffffffff1681526020019081526020016000206000848152602001908152602001600020819055506001600083815260200190815260200160002060010160009054906101000a900473ffffffffffffffffffffffffffffffffffffffff1673ffffffffffffffffffffffffffffffffffffffff1663a9059cbb33856040518363ffffffff1660e01b815260040161235f929190613532565b6020604051808303816000875af115801561237e573d6000803e3d6000fd5b505050506040513d601f19601f820116820180604052508101906123a29190613593565b50505050565b60606005600084815260200190815260200160002060008360018111156123d2576123d1612c4b565b5b8152602001908152602001600020805480602002602001604051908101604052809291908181526020016000905b828210156124f557838290600052602060002090600602016040518060e0016040529081600082015481526020016001820160009054906101000a900473ffffffffffffffffffffffffffffffffffffffff1673ffffffffffffffffffffffffffffffffffffffff1673ffffffffffffffffffffffffffffffffffffffff1681526020016001820160149054906101000a900460ff1660018111156124a8576124a7612c4b565b5b60018111156124ba576124b9612c4b565b5b815260200160028201548152602001600382015481526020016004820154815260200160058201548152505081526020019060010190612400565b50505050905092915050565b80600360003373ffffffffffffffffffffffffffffffffffffffff1673ffffffffffffffffffffffffffffffffffffffff16815260200190815260200160002060007f455448000000000000000000000000000000000000000000000000000000000081526020019081526020016000205410156125b4576040517f08c379a00000000000000000000000000000000000000000000000000000000081526004016125ab90613512565b60405180910390fd5b61263781600360003373ffffffffffffffffffffffffffffffffffffffff1673ffffffffffffffffffffffffffffffffffffffff16815260200190815260200160002060007f4554480000000000000000000000000000000000000000000000000000000000815260200190815260200160002054612b2190919063ffffffff16565b600360003373ffffffffffffffffffffffffffffffffffffffff1673ffffffffffffffffffffffffffffffffffffffff16815260200190815260200160002060007f45544800000000000000000000000000000000000000000000000000000000008152602001908152602001600020819055503373ffffffffffffffffffffffffffffffffffffffff16816040516126cf906135f1565b60006040518083038185875af1925050503d806000811461270c576040519150601f19603f3d011682016040523d82523d6000602084013e612711565b606091505b50505050565b80600073ffffffffffffffffffffffffffffffffffffffff166001600083815260200190815260200160002060010160009054906101000a900473ffffffffffffffffffffffffffffffffffffffff1673ffffffffffffffffffffffffffffffffffffffff1614156127be576040517f08c379a00000000000000000000000000000000000000000000000000000000081526004016127b5906134a6565b60405180910390fd5b6001600083815260200190815260200160002060010160009054906101000a900473ffffffffffffffffffffffffffffffffffffffff1673ffffffffffffffffffffffffffffffffffffffff166323b872dd3330866040518463ffffffff1660e01b815260040161283193929190613606565b6020604051808303816000875af1158015612850573d6000803e3d6000fd5b505050506040513d601f19601f820116820180604052508101906128749190613593565b506128d883600360003373ffffffffffffffffffffffffffffffffffffffff1673ffffffffffffffffffffffffffffffffffffffff168152602001908152602001600020600085815260200190815260200160002054612a2990919063ffffffff16565b600360003373ffffffffffffffffffffffffffffffffffffffff1673ffffffffffffffffffffffffffffffffffffffff168152602001908152602001600020600084815260200190815260200160002081905550505050565b612939612a55565b73ffffffffffffffffffffffffffffffffffffffff1661295761105a565b73ffffffffffffffffffffffffffffffffffffffff16146129ad576040517f08c379a00000000000000000000000000000000000000000000000000000000081526004016129a490613349565b60405180910390fd5b600073ffffffffffffffffffffffffffffffffffffffff168173ffffffffffffffffffffffffffffffffffffffff161415612a1d576040517f08c379a0000000000000000000000000000000000000000000000000000000008152600401612a14906136af565b60405180910390fd5b612a2681612a5d565b50565b60008183612a3791906133d5565b905092915050565b60008183612a4d91906136cf565b905092915050565b600033905090565b60008060009054906101000a900473ffffffffffffffffffffffffffffffffffffffff169050816000806101000a81548173ffffffffffffffffffffffffffffffffffffffff021916908373ffffffffffffffffffffffffffffffffffffffff1602179055508173ffffffffffffffffffffffffffffffffffffffff168173ffffffffffffffffffffffffffffffffffffffff167f8be0079c531659141344cd1fd0a4f28419497f9722a3daafe3b4186f6b6457e060405160405180910390a35050565b60008183612b2f9190613216565b905092915050565b600080fd5b6000819050919050565b612b4f81612b3c565b8114612b5a57600080fd5b50565b600081359050612b6c81612b46565b92915050565b6000819050919050565b612b8581612b72565b8114612b9057600080fd5b50565b600081359050612ba281612b7c565b92915050565b600080600060608486031215612bc157612bc0612b37565b5b6000612bcf86828701612b5d565b9350506020612be086828701612b93565b9250506040612bf186828701612b93565b9150509250925092565b612c0481612b72565b82525050565b600073ffffffffffffffffffffffffffffffffffffffff82169050919050565b6000612c3582612c0a565b9050919050565b612c4581612c2a565b82525050565b7f4e487b7100000000000000000000000000000000000000000000000000000000600052602160045260246000fd5b60028110612c8b57612c8a612c4b565b5b50565b6000819050612c9c82612c7a565b919050565b6000612cac82612c8e565b9050919050565b612cbc81612ca1565b82525050565b612ccb81612b3c565b82525050565b600060e082019050612ce6600083018a612bfb565b612cf36020830189612c3c565b612d006040830188612cb3565b612d0d6060830187612cc2565b612d1a6080830186612bfb565b612d2760a0830185612bfb565b612d3460c0830184612bfb565b98975050505050505050565b612d4981612c2a565b8114612d5457600080fd5b50565b600081359050612d6681612d40565b92915050565b60008060408385031215612d8357612d82612b37565b5b6000612d9185828601612d57565b9250506020612da285828601612b5d565b9150509250929050565b6000602082019050612dc16000830184612bfb565b92915050565b600060208284031215612ddd57612ddc612b37565b5b6000612deb84828501612b5d565b91505092915050565b6000604082019050612e096000830185612cc2565b612e166020830184612c3c565b9392505050565b60028110612e2a57600080fd5b50565b600081359050612e3c81612e1d565b92915050565b60008060008060808587031215612e5c57612e5b612b37565b5b6000612e6a87828801612e2d565b9450506020612e7b87828801612b5d565b9350506040612e8c87828801612b93565b9250506060612e9d87828801612b93565b91505092959194509250565b6000602082019050612ebe6000830184612c3c565b92915050565b60008060408385031215612edb57612eda612b37565b5b6000612ee985828601612b5d565b9250506020612efa85828601612d57565b9150509250929050565b600080600060608486031215612f1d57612f1c612b37565b5b6000612f2b86828701612e2d565b9350506020612f3c86828701612b5d565b9250506040612f4d86828701612b93565b9150509250925092565b600060208284031215612f6d57612f6c612b37565b5b6000612f7b84828501612b93565b91505092915050565b6000602082019050612f996000830184612cc2565b92915050565b60008060408385031215612fb657612fb5612b37565b5b6000612fc485828601612b93565b9250506020612fd585828601612b5d565b9150509250929050565b60008060408385031215612ff657612ff5612b37565b5b600061300485828601612b5d565b925050602061301585828601612e2d565b9150509250929050565b600081519050919050565b600082825260208201905092915050565b6000819050602082019050919050565b61305481612b72565b82525050565b61306381612c2a565b82525050565b61307281612ca1565b82525050565b61308181612b3c565b82525050565b60e08201600082015161309d600085018261304b565b5060208201516130b0602085018261305a565b5060408201516130c36040850182613069565b5060608201516130d66060850182613078565b5060808201516130e9608085018261304b565b5060a08201516130fc60a085018261304b565b5060c082015161310f60c085018261304b565b50505050565b60006131218383613087565b60e08301905092915050565b6000602082019050919050565b60006131458261301f565b61314f818561302a565b935061315a8361303b565b8060005b8381101561318b5781516131728882613115565b975061317d8361312d565b92505060018101905061315e565b5085935050505092915050565b600060208201905081810360008301526131b2818461313a565b905092915050565b6000602082840312156131d0576131cf612b37565b5b60006131de84828501612d57565b91505092915050565b7f4e487b7100000000000000000000000000000000000000000000000000000000600052601160045260246000fd5b600061322182612b72565b915061322c83612b72565b92508282101561323f5761323e6131e7565b5b828203905092915050565b7f4e487b7100000000000000000000000000000000000000000000000000000000600052603260045260246000fd5b600061328482612b72565b91506000821415613298576132976131e7565b5b600182039050919050565b60006132ae82612b72565b91507fffffffffffffffffffffffffffffffffffffffffffffffffffffffffffffffff8214156132e1576132e06131e7565b5b600182019050919050565b600082825260208201905092915050565b7f4f776e61626c653a2063616c6c6572206973206e6f7420746865206f776e6572600082015250565b60006133336020836132ec565b915061333e826132fd565b602082019050919050565b6000602082019050818103600083015261336281613326565b9050919050565b7f496e73756666696369656e742062616c616e6365000000000000000000000000600082015250565b600061339f6014836132ec565b91506133aa82613369565b602082019050919050565b600060208201905081810360008301526133ce81613392565b9050919050565b60006133e082612b72565b91506133eb83612b72565b9250827fffffffffffffffffffffffffffffffffffffffffffffffffffffffffffffffff038211156134205761341f6131e7565b5b828201905092915050565b7f4e487b7100000000000000000000000000000000000000000000000000000000600052603160045260246000fd5b7f546f6b656e20646f6573206e6f74206578697374000000000000000000000000600082015250565b60006134906014836132ec565b915061349b8261345a565b602082019050919050565b600060208201905081810360008301526134bf81613483565b9050919050565b7f496e7375666669656e742062616c616e63650000000000000000000000000000600082015250565b60006134fc6012836132ec565b9150613507826134c6565b602082019050919050565b6000602082019050818103600083015261352b816134ef565b9050919050565b60006040820190506135476000830185612c3c565b6135546020830184612bfb565b9392505050565b60008115159050919050565b6135708161355b565b811461357b57600080fd5b50565b60008151905061358d81613567565b92915050565b6000602082840312156135a9576135a8612b37565b5b60006135b78482850161357e565b91505092915050565b600081905092915050565b50565b60006135db6000836135c0565b91506135e6826135cb565b600082019050919050565b60006135fc826135ce565b9150819050919050565b600060608201905061361b6000830186612c3c565b6136286020830185612c3c565b6136356040830184612bfb565b949350505050565b7f4f776e61626c653a206e6577206f776e657220697320746865207a65726f206160008201527f6464726573730000000000000000000000000000000000000000000000000000602082015250565b60006136996026836132ec565b91506136a48261363d565b604082019050919050565b600060208201905081810360008301526136c88161368c565b9050919050565b60006136da82612b72565b91506136e583612b72565b9250817fffffffffffffffffffffffffffffffffffffffffffffffffffffffffffffffff048311821515161561371e5761371d6131e7565b5b82820290509291505056fea2646970667358221220bc793cc3b49b8c6d844782a15408d26e7260ef3fd0bccbfbf19ce6e513c6aac864736f6c634300080b0033",
  "immutableReferences": {},
  "source": "// SPDX-License-Identifier: MIT\n\npragma solidity ^0.8.0;\npragma experimental ABIEncoderV2;\n\n\nimport \"./wallet.sol\";\n\ncontract Dex is Wallet {\n\n    using SafeMath for uint256;\n\n    enum Side {\n        BUY,\n        SELL\n    }\n\n    struct Order {\n        uint id;\n        address trader;\n        Side side;\n        bytes32 ticker;\n        uint amount;\n        uint price;\n        uint filled;\n    }\n\n    uint nextOrderId;\n\n    mapping(bytes32 => mapping(uint => Order[])) public orderBook;\n\n    function getOrderBook(bytes32 ticker, Side side) public view returns(Order[] memory) {\n        return orderBook[ticker][uint(side)];\n    }\n\n   function createLimitOrder(Side side, bytes32 ticker, uint amount, uint price) public {\n        if(side == Side.BUY) {\n            require(balances[msg.sender][\"ETH\"] >= amount.mul(price));\n        }\n        else if(side == Side.SELL) {\n            require(balances[msg.sender][ticker] >= amount);\n        }\n\n        Order[] storage orders = orderBook[ticker][uint(side)];\n        orders.push(\n            Order(nextOrderId, msg.sender, side, ticker, amount, price, 0)\n            );\n\n        uint i = orders.length > 0 ? orders.length - 1 : 0;\n\n       if(side == Side.BUY) {\n           while(i > 0) {\n               if(orders[i-1].price > orders[i].price) {\n                   break;\n               }\n               Order memory orderToMove = orders[i-1];\n               orders[i-1] = orders[i];\n               orders[i] = orderToMove;\n               i--;\n           }\n\n       }\n\n       else if(side == Side.SELL) {\n            while(i > 0) {\n               if(orders[i-1].price < orders[i].price) {\n                   break;\n               }\n               Order memory orderToMove = orders[i-1];\n               orders[i-1] = orders[i];\n               orders[i] = orderToMove;\n               i--;\n           }\n       }\n\n        nextOrderId++;\n   }   \n\n   function createMarketOrder(Side side, bytes32 ticker, uint amount) public {\n        \n        if ( side == Side.SELL ) {\n            require(balances[msg.sender][ticker] >= amount, \"Insufficient balance\");        \n        }\n        \n        uint orderBookSide;\n\n        if(side == Side.BUY) {\n            orderBookSide =1;\n        }\n        else {\n            orderBookSide = 0;\n        }\n        Order[] storage orders = orderBook[ticker][uint(orderBookSide)];\n\n        uint totalFilled;\n\n        for (uint256 i = 0; i < orders.length && totalFilled < amount; i++) {\n\n            uint leftToFill = amount.sub(totalFilled);\n            uint availableToFill = orders[i].amount.sub(orders[i].filled);\n            uint filled = 0;\n            if(availableToFill > leftToFill) {\n                filled = leftToFill;\n            }\n            else{\n                filled = availableToFill;\n            }\n\n            totalFilled = totalFilled.add(filled);\n            orders[i].filled = orders[i].filled.add(filled);\n            uint cost = filled.mul(orders[i].price);\n\n            if(side == Side.BUY) {\n\n                require(balances[msg.sender][\"ETH\"] >= cost);\n                balances[msg.sender][ticker] = balances[msg.sender][ticker].add(filled);\n                balances[msg.sender][\"ETH\"] = balances[msg.sender][\"ETH\"].sub(cost);\n\n                balances[orders[i].trader][ticker] = balances[orders[i].trader][ticker].sub(filled);\n                balances[orders[i].trader][\"ETH\"] = balances[orders[i].trader][\"ETH\"].add(cost);\n            }\n\n            else if(side == Side.SELL) {\n\n                require(balances[msg.sender][\"ETH\"] >= cost);\n                balances[msg.sender][ticker] = balances[msg.sender][ticker].sub(filled);\n                balances[msg.sender][\"ETH\"] = balances[msg.sender][\"ETH\"].add(cost);\n\n                balances[orders[i].trader][ticker] = balances[orders[i].trader][ticker].add(filled);\n                balances[orders[i].trader][\"ETH\"] = balances[orders[i].trader][\"ETH\"].sub(cost);\n            }\n        }\n\n        while(orders.length > 0 && orders[0].filled == orders[0].amount) {\n             for (uint256 i = 0; i < orders.length - 1; i++) {\n                 orders[i] = orders[i+1];\n             }\n             orders.pop();            \n        }        \n\n    }\n\n}",
  "sourcePath": "/Users/mani/Downloads/Moralis/DEX/contracts/dex.sol",
  "compiler": {
    "name": "solc",
    "version": "0.8.11+commit.d7f03943.Emscripten.clang"
  },
  "schemaVersion": "3.4.4",
  "updatedAt": "2022-01-13T18:23:24.323Z",
  "networkType": "ethereum",
  "devdoc": {
    "kind": "dev",
    "methods": {
      "owner()": {
        "details": "Returns the address of the current owner."
      },
      "renounceOwnership()": {
        "details": "Leaves the contract without owner. It will not be possible to call `onlyOwner` functions anymore. Can only be called by the current owner. NOTE: Renouncing ownership will leave the contract without an owner, thereby removing any functionality that is only available to the owner."
      },
      "transferOwnership(address)": {
        "details": "Transfers ownership of the contract to a new account (`newOwner`). Can only be called by the current owner."
      }
    },
    "version": 1
  },
  "userdoc": {
    "kind": "user",
    "methods": {},
    "version": 1
  }
}